:020000040020DA
:10000000003500208D022000478C2000458C200008
:10001000458C2000458C2000458C2000000000000D
:10002000000000000000000000000000458C2000DF
:10003000458C200000000000458C2000E58C20004D
:10004000078D20000D8D2000138D2000198D2000BC
:1000500000000000EB8C2000F18C2000458C20007B
:10006000458C20000000000000000000000000009F
:100070000000000000000000458C2000000000008F
:100080000000000000000000458C2000458C20008E
:10009000458C2000458C2000458C2000458C20009C
:1000A000458C2000458C2000458C2000458C20008C
:1000B000458C2000458C2000458C2000458C20007C
:1000C000458C2000458C2000458C2000458C20006C
:1000D000458C20000000000000000000000000002F
:1000E0000000000000000000000000000000000010
:1000F000000000000000000031192000411920001C
:1001000000000000000000000000000000000000EF
:1001100000000000000000000000000000000000DF
:1001200000000000000000000000000000000000CF
:1001300000000000000000000000000000000000BF
:1001400000000000000000000000000000000000AF
:10015000000000000000000000000000000000009F
:10016000000000000000000000000000000000008F
:10017000000000000000000000000000000000007F
:10018000000000000000000000000000000000006F
:10019000000000000000000000000000000000005F
:1001A000000000000000000000000000000000004F
:1001B000000000000000000000000000000000003F
:1001C000000000000000000000000000000000002F
:1001D000000000000000000000000000000000001F
:1001E000000000000000000000000000000000000F
:1001F00000000000000000000000000000000000FF
:1002000000000000000000000000000000000000EE
:1002100000000000000000000000000000000000DE
:1002200000000000000000000000000000000000CE
:1002300000000000000000000000000000000000BE
:1002400000000000000000000000000000000000AE
:10025000000000000000000000000000000000009E
:10026000000000000000000000000000000000008E
:10027000458C2000191820003D182000D10E2000C8
:100280004D192000A9092000458C200008B5094B14
:10029000FF221A600848094A4824E3690849121AEB
:1002A00098470848084AA3690021121A984700F0A5
:1002B00037F8FEE7B4200D40400000201102002076
:1002C000CCA7200018020020FB2C002008B500F06D
:1002D00019F8024B00221A7008BD00BFD619002081
:1002E000024A13781843107000F014B8D619002091
:1002F000034A137823EA0000107000F00BB800BF27
:10030000D6190020024A136843F00F0313607047A8
:1003100000B40D40014B1860704700BF3CB00D4069
:10032000F7B500F07DFC00F06DFD00F0CDFC00F0B5
:10033000AFFA08F09FFD00F05DFDFFF7C7FF022058
:1003400008F084FC02F0FAF800F056FC00F0E6F940
:10035000002000F06BFB012000F068FB4449002006
:1003600000F034FC02F012FA08F0C5FC042008F09A
:100370006DFC404808F0F4FC3F4808F0F1FC00F048
:1003800029FA3E4801F02EFB3D4B3E4C186808F020
:10039000E7FC3D4801F026FB3C4B0025186808F0BF
:1003A000DFFC3B4801F01EFB3A4B186808F0D8FC14
:1003B000002002F00DFA01F055FA3748002102F052
:1003C0003FF901F0EDFE6846082101F0D1FA9DF8F1
:1003D00007309DF8067043EA07276B4603CB206081
:1003E00061602E4801F0FEFA615D2D48013501F093
:1003F000F9FA072D234EF7D12A4DF1792A4801F059
:10040000F1FAEC6A4AF6CD310220A04739460320C2
:10041000A0471A210120A04769466B6B08220B20D8
:10042000984700F077FD00F08FFD07F05FFA1F4A54
:10043000336813607368536006F072FF1C48002134
:1004400002F0FEF800F000FD00211A4802F0F8F872
:1004500008F0DFFC184808F0D2FC00F0D3FB0820BD
:1004600008F0F4FB00F0D4FB02F080F8FAE700BFDC
:10047000492720006CA4200086A420009EA4200010
:1004800000A42000F32C0020A5A420000CA4200030
:10049000ACA4200034A420009C000020B3A42000C1
:1004A000D1A42000A8A32000D7A42000D42200209B
:1004B000200100204000002064A4200070B50588C1
:1004C0000446772D30D07E2D3FD0002D4DD102F047
:1004D0002DF8294B1870294B1D601D462B68284AA2
:1004E000264E52F823204AB126480021C154936871
:1004F00080209847336801333360EFE7224A137056
:10050000772320E01F4AD256002A12DB1B4A1368C9
:1005100001331360194B1C4A1B6812789342F1DBBC
:100520001A4B1B68002BEBD0184A00231360134AA8
:10053000EFE7114A00201178114A52F8232002F007
:1005400057F830B97E23238013E00B4B1B788B4286
:100550000FD10A4B0B491A688B5C03F07F038B5455
:100560000A4A136801331360D0E700230380032095
:1005700070BD012070BD00BFE62C002028020020C5
:1005800050000020E72C0020D71900202C0200206A
:10059000094B1A780023934204DA084951F82310D2
:1005A000814207D106490748CA5C62F07F02CA54FB
:1005B00002F05EB80133EEE7D719002050000020AA
:1005C000E72C00204000002008B50948082108F069
:1005D00067FB03210422002000F022FC002000F031
:1005E0003DFB04480021032200F0C0FB012008BDB0
:1005F00000900D40B906200008B50948102108F008
:100600004FFB04210A46022000F00AFC022000F001
:1006100025FB04480221042200F0A8FB012008BDAC
:1006200000B00D40B906200008B50948202108F0A7
:1006300037FB05210422022000F0F2FB022000F02B
:100640000DFB04480221052200F090FB012008BDAB
:1006500000B00D40B906200008B50948402108F057
:100660001FFB06210422022000F0DAFB022000F02A
:10067000F5FA04480221062200F078FB012008BDAB
:1006800000B00D40B906200008B50948802108F0E7
:1006900007FB07210422022000F0C2FB022000F029
:1006A000DDFA04480221072200F060FB012008BDAA
:1006B00000B00D40B906200038B5054611480C467B
:1006C00008F0ECFBE8B10F48102108F0D5FB1DB98C
:1006D000032C16D10C4810E0022D12D1042C01D1AC
:1006E0000A480AE0052C01D1094806E0062C01D190
:1006F000084802E0072C04D10748BDE83840FFF75E
:1007000047BF38BD3002002070A2200090A2200018
:10071000A0A2200080A22000B0A220000148002159
:1007200008F0AABB3002002010B5074CFF2323605D
:100730004FF4FA6000F0E8F800213022062000F0C3
:100740008BFB0023236010BD00920D40802870B504
:100750001ED1104E104D3368002423F08003336007
:100760002B68204643F080032B600C4B07211C6054
:10077000224600F055FB3368204623F040033360E7
:100780002B68062123F040032B60012200F048FB78
:10079000002070BD20940D4000940D4000920D404B
:1007A000044B1868C0F30720030904BF1030C0B21F
:1007B000704700BF1C300D40054B1868C0F3C210D5
:1007C00001289ABFC0F1020040034FF40040704777
:1007D00014300D402DE9F04788B0FFF7E1FF174BCB
:1007E00048251C68AB68074698476B688046984761
:1007F0000646FFF7E1FF054600F0A0FA824600F04A
:10080000A9FA814600F056FAB60AC4F34003AD0ACD
:1008100004F0010402930690009601950394CDF82C
:1008200010A0CDF814904146C7F3071207F00F034C
:10083000034801F0D7F808B0BDE8F0871C300D4040
:10084000F0A42000F8B500F06DF80F4B0024D3E9B8
:1008500000673A46B04238BF7A1C15460443C3E9E4
:100860000045DFF828E0DEE90001821B61EB0703A9
:1008700012196B41CEE9002301F0C2FD18B1BDE8A9
:10088000F84001F04DBDF8BD180200202002002004
:100890000F4B104A1A6053F8042C42F0050243F83B
:1008A000042C53F8042C42F0020243F8042C0A4AA8
:1008B000136843F001031360084B00221A600422FE
:1008C00043F80C2C012243F8082C0F22DA627047FF
:1008D00014E000E047E8010008200D400C00034050
:1008E000034BD3E90023100A40EA0360704700BFBE
:1008F00018020020034BD3E90023D00B40EA434009
:10090000704700BF20020020054B18601C3B1A688E
:1009100042F001021A601A68D207FCD4704700BF87
:1009200028000340074B084A196804331B68126803
:10093000120442EA0323054A0B43106843EA0060AD
:10094000704700BF40500D4048500D404C500D4086
:1009500010B50446114B1B68DB07FBD508F0CFF937
:10096000FFF7E0FF231A062BD8BFC41D0C4B220E45
:100970001A60C4F3074243F8042CC4F3072243F877
:10098000082CE2B243F80C2C08F0B5F9054B912085
:100990001C60BDE8104000F061B900BF50500D4030
:1009A0004C500D403802002008B5064B0022912023
:1009B0001A6000F06BF9912000F05CF9BDE8084086
:1009C00001F062BE38020020164A38B52C2303FB22
:1009D00000234FF6BF72DC680546236C62649BB24D
:1009E00013F050020DD0A369DB0609D40E4B53F867
:1009F00025301BB12068C0B29847F4E72368F2E7BE
:100A000038BD13F4D06F0BD04FF440732363FF2332
:100A10006360E36AE262E362236B43F001032363F2
:100A200038BD00BFD0A220003C0200202DE9F04FCD
:100A3000012885B0064600F2BC802C2343435E4A61
:100A4000D51895F920A005F12007BAF1000F9146BD
:100A5000C0F2AF8095F92220002AC0F2AA80574A3E
:100A600059F803301168EC680B43136051686B68E8
:100A700095F921B00B4353609168AB6895F82280DB
:100A80000B4393600023C4F8C83F2B690BEBCA02E9
:100A90001A6095F823305FFA88FC01939DF80430C2
:100AA000604619462A7DCDF80CC0029300F0C2F9C9
:100AB000029BDDF80CC019466046082200F0B0F930
:100AC0004FFA88F83E494FEA08389DF9042058F853
:100AD0000100012303FA02F2024348F801204FEA21
:100AE0000A3A5AF8010003FA0BF202434AF80120CD
:100AF0005022A263A26B95F8240042F4D062A26354
:100B0000022262634FF440722263AA696262EA6958
:100B1000A2627022E26242B2002A0C4614DB95F90E
:100B20002510284D41EAC20129607979120315592F
:100B30004FB2BB402B431351002200F071F9224AFF
:100B4000136843F4004313602C2303FB069393F8CC
:100B5000265020336FB2002F1CDB93F807A0EDB2B4
:100B60005FFA8AF82846414601223F0300F062F905
:100B70004FFA8AFA3A59012303FA0AF313433B5115
:100B800008222846414600F04BF90F4A136843F407
:100B9000804313602C2303FB0696F26896F8280026
:100BA000136B43F00103136305B0BDE8F04F00F091
:100BB00055B805B0BDE8F08FD0A2200028200D4028
:100BC00020940D4004410D4030D0004001289CBFCE
:100BD000014B43F8201070473C020020012808D840
:100BE000044B2C2202FB0030C3689A699206FCD4A5
:100BF00019607047D0A22000014B00221A60704794
:100C000000500D40014B08221A60704700500D4003
:100C1000024BA0221A6050221A60704700500D400B
:100C2000074A084B1A60084B80321A60074B803223
:100C30001A60074B80321A60064B074A1A607047E9
:100C400000E100E0500200204402002048020020A1
:100C50004C02002008ED00E000002000044B410998
:100C60001A6800F01F000123834042F821307047CA
:100C700050020020044B41091A6800F01F000123B4
:100C8000834042F82130704744020020044B410960
:100C90001A6800F01F000123834042F8213070479A
:100CA0004C020020024B1868C0F38150704700BF0F
:100CB00004200D4008B5FFF7F5FF024B53F8200064
:100CC00008BD00BF28A3200038B5164D164C2B6870
:100CD000032023F040032B602368062123F0400308
:100CE0002360012200F09CF82B68012223F080038E
:100CF0002B602368032023F080032360072100F08A
:100D00008FF80A4A0A4B1A600A4B0B4A19680A40C4
:100D1000002AF9D11A685101FCD41A685201FCD595
:100D200038BD00BF20C40D4000C40D4001010200C9
:100D300000200D4004200D4000000101034B044839
:100D40001B6803F007031841704700BF04200D40E3
:100D50000048E801034B04481B68C3F30223184111
:100D6000704700BF04200D400048E801024B02EB31
:100D7000C10243F82200704754020020F8B507462C
:100D80000E46094D002405EB411547FA04F3DB0735
:100D9000E1B204D555F824300BB130469847013400
:100DA000082CF2D1F8BD00BF540200202DE9F84311
:100DB0000703DFF83C8007F1804505F55925D5F894
:100DC000186457F808404FEAC00924FA09F40146AC
:100DD00046EA0400E4B2C0B2F6B204FA09F4FFF73E
:100DE000CDFFC5F81C6447F80840BDE8F88300BF94
:100DF00018970D4002480021802207F0D5BE00BFA1
:100E000054020020034A044B1A60044B803A1A60D3
:100E1000704700BF80400D40D8020020D40200205F
:100E2000034B01EBC0011B6843F82120704700BF52
:100E3000D8020020034B01EBC0011B6843F82120BE
:100E4000704700BFD4020020024A136843F0300309
:100E50001360704700700D400E2870B50BD1164B13
:100E6000164E1C6844F002051D60356825F03F03EE
:100E700043F001033360124E336823F0FF031A433B
:100E80001143014331600F4B1B681B06FBD50E4B12
:100E90000E4A1B6812680E2803F0FC0343EA022383
:100EA00008BF064A9BB204BF1560034A9BB208BF45
:100EB000146018B270BD00BF34000144F4860840CD
:100EC00008700D4000700D400C700D4010700D400A
:100ED00010B58F20064CFFF7D9FE8F20FFF7CAFE12
:100EE000206818B101F0C4FB0023236010BD00BFCF
:100EF000DC020020064A136843F0020313605368C3
:100F000043F002035360936843F002039360704719
:100F100048200D4007B5FFF7EDFF0A4B1A6842F075
:100F200002021A6000220192019A0F2A02DC019A41
:100F30000132F8E71A6822F002021A6003B05DF885
:100F400004FB00BF54200D40064A136823F002033F
:100F50001360536823F002035360936823F0020385
:100F60009360704748200D40084B93F90020002AF9
:100F700009DB074AED2111601160E32111601A7845
:100F800062F07F021A700120704700BFDB19002059
:100F9000388808400B4B1A689207FBD41B685B0625
:100FA0005FBF094BED221A601A60084B1B6813B132
:100FB000054BEF221A60064A0120137803F07F03E5
:100FC000137070474C860840388808402C860840CB
:100FD000DB19002038B5A0F10B04E3B20F2B054656
:100FE00013D80B4B1B6813F03F0302D0FFF7D2FF5F
:100FF000012304EB8404074A0B3414600BB1FFF7A0
:10100000B3FF054BE8B21D7000E0FF2040B238BDD1
:10101000488608403C8608400F02002010B50B4B64
:101020001B68990603D1FFF79FFF012300E000230F
:10103000074A1268D207FBD5064A1468C4F30014A5
:101040000BB1FFF7A7FF204610BD00BF4886084040
:10105000648608404C860840044B186800F0220063
:10106000A0F1200358425841704700BF4C86084009
:10107000024B186800F04000704700BF4C860840E3
:1010800038B50C46002900F08880102800F28780CF
:10109000DFE800F0090F1A1C23394253586F73859B
:1010A00085787A7C7F003F4B1B68003318BF012393
:1010B00070E03D4B05221B6803F07F030B3B93FB65
:1010C000F2F30B33DBB265E0384B00E0384B1A68C3
:1010D000043B1B6843EA02235CE000230B60354BB2
:1010E000354A1B6803F001030B601268900644BF89
:1010F00043F002030B60314B1B78002B4BD00B6885
:1011000043F0040346E02E4B00201B780860002BC0
:1011100041D001230B6038BD2A4B1A680023D2B29C
:10112000294901EBC3000079904202D851F83330CD
:1011300030E001330E2BF3D128E0244B1B685BB267
:10114000493B27E0224B1B68990603D1FFF70CFFB0
:10115000012300E000231F4A1268D207FBD51E4A74
:101160001568493DEDB20BB1FFF714FF6DB2256074
:1011700011E01A4B93F900300CE0194B1B7803F087
:101180007F0307E00B2305E01A2303E06FF017034A
:1011900000E007232360002038BD022038BD012075
:1011A00038BD00BF2C8608403C860840CC850840EE
:1011B000D48508400086084024860840DA190020BB
:1011C0000E0200204086084038A3200058860840C0
:1011D000488608406486084060860840D919002087
:1011E000D819002038B505460C46134B1B689B07E1
:1011F000FBD4124B93F90030002B01DBFFF7B4FE58
:101200000F4BEE221A60691E1A60A21C43F8102CC4
:101210002144022000F03EFB013C0A492401214305
:10122000022000F049FB022000F050FB022000F0F9
:1012300065FB002038BD00BF4C860840DB1900204C
:101240003888084002C001C0F8B5214B93F900303E
:10125000002B0DDBFFF766FB0446FFF785FEFFF76B
:1012600061FB6FF009031B1BC342F8D4012600E0A9
:101270000026184B1B7823B9174D2B68990604D408
:1012800005E0FFF7CBFE0028F6D10220F8BD134C95
:10129000E923236004272B689A0707D4013F17F03E
:1012A000FF0703D00620FFF72FFBF4E72B689B070F
:1012B00004D4EE2323602360012403E02C6814F09F
:1012C0000204FBD10EB1FFF765FE2046F8BD00BF5A
:1012D000DB1900200E0200204C86084038880840A8
:1012E000044B1A6810B142F0010201E022F0010241
:1012F0001A607047008608400B280DD1082A0DD1CE
:1013000061B1074B083111F8012D43F8042F054A4C
:101310009342F8D1002070470120704702207047A7
:10132000A4850840C485084070B5304E336813F07A
:10133000400308D02E4D2B68DCB21B0605D52D4B83
:10134000ED221A601A60002070BD042CF7D9023C0F
:101350008C42F4DCE4B2032C21D0011901390320C2
:1013600000F0A0FA631E24491B010320194300F07A
:10137000A3FA032000F0AAFA032000F0BFFA03202A
:1013800000F0C8FA0028FAD129681C4B4939C9B2C3
:1013900019702B681A4D18062B70D0D506E02B68F3
:1013A00003702B6843702B688370EDE749B289B2F4
:1013B000042006F071FA2978032001F07F0106F07D
:1013C0006BFA104B1B7873B933685A060BD5074B71
:1013D0001B681B0603D50C4801F04AF903E0054BD6
:1013E000ED221A601A60204670BD00BF4C8608408E
:1013F000288808403888084002C0010CD91900200C
:10140000D8190020DA190020740000201E4B187033
:10141000002831D01D4B1B681B03FBD51C4B1A68E1
:1014200042F002021A601A6842F001021A601A6859
:1014300017495007FBD50A6822F001020A601968B3
:10144000134A4907FBD4116841F002011160116889
:1014500041F0010111601A685207FCD50D4A8D2038
:10146000136823F004031360D2F8A83123F00403B7
:10147000C2F8A831FFF7FEBB064A8D20136843F07F
:1014800004031360FFF7EABBDA19002004200D40C3
:10149000048808408C86084010B50C4607285CD8A4
:1014A000DFE800F0040F1B1F263C4256012903D140
:1014B000FFF75AFD002010BD002950D1FFF76AFD4B
:1014C000F8E7A1F10B030F2B49D8C8B2FFF782FD53
:1014D000431C0CBF0320002010BD8CB2E2B2214B94
:1014E00002E08CB2204BE2B2240A1A605C60E1E7B1
:1014F00031F0070333D101F00100FFF7F1FE1B4B80
:1015000014F0020F1A68C4F3800014BF42F02002E6
:1015100022F020021A60FFF779FFCBE731F00100DB
:101520001DD1134B197010BD01F118031F2B16D8D4
:101530000D231049DA0051F83300844204DC8B1883
:101540001A790D4B1A60B5E713F1FF33F1D2B1E709
:10155000CCB20A4B49341C60ACE7012010BD02201C
:1015600010BD00BFC8850840D085084024860840CB
:101570000E02002038A3200040860840588608400C
:10158000F8B5294F3D7815F001054AD1274B0124C4
:101590001C605C609C60A3F59323A3F51473F82290
:1015A0001A600922C3F89021152270331A6003F5DE
:1015B0009B230B2203F59E731A60A3F59B23A3F5CF
:1015C000F07340221A601A687F2642F020021A60E7
:1015D000FF2243F81C5CDE62DA61154B1878FFF7D6
:1015E000F9FC144B8E201E60FFF738FB022000F040
:1015F00079F91149022000F055F9032000F072F941
:101600000D49032000F046F90C4B1878FFF7FEFE59
:101610000B48294601F014F83B78204623433B70E1
:10162000F8BD0020F8BD00BFDB190020A8200D4048
:101630000F0200209486084028880840DA1900200C
:101640007400002038B503880446CBB140F2034251
:10165000934203D000230380032038BD194B187830
:101660001A4628B11B7873B1174B1B7858060AD558
:10167000822908D1137843B1134B1A78520614D437
:1016800040F203432380012038BD06F0ABF806F09A
:101690003FF88021FFF748FE0028EDDD80B206F01C
:1016A0001BF80A4B1B699847E6E700221A70084BA3
:1016B0001D68FFF76FFCFFF763FFAB06E0D0FFF795
:1016C00053FCDDE7DA190020DB19002034A42000E8
:1016D000488608400B282DE9F84F8A4611D1082A80
:1016E00040F0828000297FD0414B01F1FF3A53F84E
:1016F000042D0AF8012F3F4A9342F8D10020BDE89B
:10170000F88F0C286DD1042A6ED100296CD03A498B
:101710003A480B68DFF8EC9023F007030B6003688E
:10172000DFF8E4B043F008030360DBF80040D9F8C9
:1017300000200B68DFF8D4C0DFF8D48023F07003FA
:101740000B60D8F80050DCF80030E4B2120244EA32
:10175000036392B2DFF8BCE01A43EBB242EA034300
:101760000024DEF8002044EA03060B68D5B223F01B
:10177000070343F001030B6003682F4643F008039F
:101780000360DBF80000D9F800200B68120223F098
:10179000700343F010030B60D8F80050DCF8003001
:1017A000C1B241EA036392B21A43EBB242EA034385
:1017B000DEF8002044EA03085FFA82F9FFF7B2F886
:1017C000B6EB080667EB0907F903054641EA5641FF
:1017D000F0030B4A002306F003FE281ACAF80000A3
:1017E0008CE70120BDE8F88F0220BDE8F88F00BF2C
:1017F000C8850840A885084010880840048808402B
:101800000048E801188808401488084020880840EB
:10181000248808401C88084008B5054B1B7813B97C
:10182000044800F025FF044B00221A6008BD00BFE9
:10183000DA1900207400002034880840064B07485D
:101840001A68042A1FBF06490A7842F040020A704B
:1018500000221A6000F00CBF2C88084074000020A1
:10186000DB19002010B5094C00212046402207F06A
:101870009BF9074B01221A602E205C60FFF7EEF9FE
:10188000BDE810402F20FFF7E9B900BF000000209D
:1018900004F00F4003289EBF014B00011950704710
:1018A0000000002003289EBF024B03EB00104160A4
:1018B000704700BF0000002003289EBF024B03EBCF
:1018C00000108160704700BF0000002003289FBF08
:1018D000034901230A6883409CBF13430B60704790
:1018E00028F00F4003289FBF034901230A68834063
:1018F0009CBF13430B60704720F00F4003289FBF2D
:10190000034901230A6883409CBF13430B6070475F
:1019100014F00F4003289FBF044B03EB00108068B6
:1019200000F0070088BF0020704700BF00000020C3
:10193000024B4FF0FF321A60704700BF04F50F40B2
:10194000014B01221A6070474CF00F4010B59020F7
:10195000064CFFF79BF99020FFF78CF9206818B12F
:1019600000F086FE0023236010BD00BFE0020020CF
:1019700030B5184B1A78431E3AB9174A1278122A12
:1019800003D1164A12784B2A03D001F520112731D2
:1019900017E04A0802F12814B4F1281F04D014F803
:1019A000015D03F8015FF7E701F5201127310023FE
:1019B000934205DA11F801598418E5540133F7E729
:1019C00030BD074A914204D011F8012903F8012FD4
:1019D000F7E730BD2B0028002A0028002900280046
:1019E000270028000FB407B504AA52F8041B0448C6
:1019F000019200F021F803B05DF804EB04B07047E9
:101A00008400002070B505460C46102C07D92B68C1
:101A1000686808491022984750B9103CF5E734B17E
:101A20002B6868682246BDE8704002491847204686
:101A300070BD00BF20A620002DE9F04F80468FB07A
:101A4000069107920026069B1B78002B00F05F830F
:101A5000069B1C4613F8012B1AB9069B9C4203D126
:101A60000FE0252AF5D1F8E7069BD8F80400E51A1F
:101A70000699D8F800302A469847002840F02A8373
:101A80002E442378002B00F042836378611C002BE6
:101A900000F03D8300240A4611F8013B2B2B11D0A6
:101AA00006D8202B11D0232B12D144F00804F2E7E2
:101AB0002D2B04D0302B0BD144F01004EBE744F075
:101AC0000104E8E744F00604E5E744F00204E2E735
:101AD000A3F1310108290DD8134600251A4613F841
:101AE000011BA1F13000092811D80A2202FB0515BB
:101AF000303DF3E72A2B09D1079B01321D68191DE0
:101B0000002D0791B8BF44F0010400E000251378D0
:101B10002E2B1CD15178531CA1F1300009280ED86E
:101B2000194600270A780B46A2F13000092801F176
:101B300001010FD80A2303FB0727303FF2E72A29C8
:101B400006D1931C079A111D0791176802E01346EE
:101B50004FF0FF371A786C2A09D15A786C2A02D1D3
:101B600044F080040AE0013344F060040BE0682A8A
:101B700009D15A78682A03D144F02004023302E0E4
:101B8000013344F040041A78642A3CD01FD8462A16
:101B900048D00DD8252A5AD003D8002A00F0B782A1
:101BA00057E0412A4AD0452A53D144F4424450E0F8
:101BB000582A31D004D8472A4BD144F4A13448E004
:101BC000612A38D0632A44D144F4A06441E06E2AEB
:101BD0003AD007D8662A22D027D3672A28D0692A84
:101BE00011D036E0732A2CD006D86F2A11D0702A73
:101BF0002FD144F440742CE0752A07D0782A28D1DC
:101C000044F4C85425E044F4245422E044F410641D
:101C10001FE044F488541CE044F4B24419E044F456
:101C2000007416E044F4844413E044F4024410E0E9
:101C300044F481340DE044F4C1340AE044F4E13466
:101C400007E044F4806404E044F4E06401E044F418
:101C5000C0640133069304F4E063B3F5806F00F0D1
:101C6000AA8116D8B3F5807F2BD0B3F5407F7FF4DF
:101C7000EAAE079BA04914F4804F03F104029F4889
:101C800018BF08460DF1330107920F461A6800236A
:101C9000C5E1B3F5C06F08D0B3F5E06F00F0318255
:101CA000B3F5A06F7FF4CFAE00E2D8F80030D8F8DB
:101CB0000400934901229847002840F00B82013626
:101CC000C1E6002FACBF24F01004012714F4005328
:101CD000039304F0E00337D0402B17D008D8DBB1D2
:101CE000202B2AD1079B1A1D079293F9002017E099
:101CF000602B11D0802B20D1079B073323F00703E3
:101D000003F108020792D3E900230AE0079B1A1D9A
:101D10000792B3F9002003E0079B1A1D07921A6887
:101D2000D317002A73F1000109DA524263EB43032F
:101D3000CDE900234FF0010933E000220023CDE973
:101D400000234FF000092CE0402B16D007D8CBB170
:101D5000202B20D1079B1A1D07921A78EEE7602BE3
:101D600010D0802B17D1079B073323F0070303F113
:101D700008020792D3E90023E1E7079B1A1D0792A7
:101D80001A88DBE7079B00211A1D07921B6818467B
:101D9000CDE90001D5E700220023CDE900234FF073
:101DA000000904F4C053B3F5805F0CD0B3F5C05FF5
:101DB00033D0B3F5006F4FD1DDE900230DF1360AC2
:101DC000CDE9042304E0DDE900230DF1360A15E036
:101DD000DDE9042313433AD0DDE904010A2200239C
:101DE00006F0FEFADDE9040130320AF8012D002385
:101DF0000A2206F0F5FACDE90401E9E752EA030107
:101E000025D002F0070130310AF8011DD10841EA5E
:101E10004371D8080A460346F0E7384B14F4804F64
:101E20000DF1360A344908BF1946DDE9002352EAAC
:101E300003000CD002F00F00085C4FEA131E0AF8F2
:101E4000010D100940EA037002467346EFE70DF1F9
:101E5000360BCAEB0B0B03E00DF1360A4FF0000B0B
:101E600041F6080241F208035F4502EA04028CBF12
:101E7000CBEB070700279A4202D1002F08BF0127AA
:101E800041F608018A4207EB0B030DD1DDE90001A1
:101E900050EA010208D01B4914F4804F1A4A4FF04F
:101EA000020C18BF0A4602E04FF0000C624603998C
:101EB000A1B1B9F1000F0AD104F0060102290AD03C
:101EC0000629124904BF4FF0010C0A4606E04FF004
:101ED000010C0F4A02E00F4A4FF0010C63449D428F
:101EE0008CBFED1A002514F0010922D1E30613D5A9
:101EF0002F444D461DE000BFEBA52000FCA52000AF
:101F00001EA6200010A620000DA6200015A6200069
:101F100013A62000AAA4200040462946CDF80CC0F4
:101F20000092FFF76FFD009ADDF80CC0002840F02A
:101F3000D180BCF1000F0DD01146D8F800306246B8
:101F4000D8F80400CDF800C09847DDF800C000289C
:101F500040F0C0803C465E44102CD8F800300DD9CB
:101F6000D8F804006C491022CDF800C0984700282A
:101F700040F0B080103CDDF800C0EDE75CB1D8F86F
:101F8000040065492246CDF800C09847DDF800C03E
:101F9000002840F09F80D8F80030D8F8040051465F
:101FA0005A4666449847002840F094803E44B9F170
:101FB000000F79D073E0079BD3F800A01A1D079299
:101FC000BAF1000F09D05346994699F80020013321
:101FD000002AF9D1CAEB090903E0DFF840A14FF06C
:101FE0000609002F02DBB94528BFB9464D458CBF15
:101FF000C9EB0505002514F0010405D1404629462A
:10200000FFF700FD002865D1D8F80030D8F80400AB
:1020100051464A46984700285CD14E443EE052EA79
:10202000030E0ED002F00F0E10F80EE04FEA131C54
:1020300001F801ED4FEA121E4EEA037E7246634636
:10204000EDE70B467F1A01BF3022012701F1FF3374
:1020500001F8012C03377822BD4203F8012C4FF020
:10206000300203F8022C88BFED1B4FF0230298BF0B
:10207000002514F00104A3F1030903F8032C04D193
:1020800040462946FFF7BEFC20BBD8F80030D8F800
:10209000040049463A469847E0B93E4424B14046D8
:1020A0002946FFF7AFFCA8B92E44CCE4079B012DCD
:1020B00003F104021B688CBF05F1FF35002514F005
:1020C000010407928DF8203008D140462946FFF7D9
:1020D00099FC10B14FF0FF301AE02E44D8F80030D0
:1020E000D8F8040008A9012298470028F2D16F1CF3
:1020F0002CB140462946FFF785FC0028EAD13E4432
:10210000A1E4079B1A1D1B6807921E609BE43046E2
:102110000FB0BDE8F08F00BFDBA5200017A62000A0
:10212000F8B50388064615462BB14A2B15D0002377
:1021300003800320F8BD174806F0ECFE04462CB1DE
:10214000201DA16806F06DFE2468F8E7124B0122FD
:102150001A704A2333800120F8BD8829FBD10D482D
:1021600006F0D8FE0446002CF3D0231D9D420ED16C
:102170000848214606F0D8FE084B62691F681A60BD
:10218000A2691D460AB1E06990472F60E1E7246823
:10219000E9E700BFE4020020DC190020F002002083
:1021A00010B5064B002406481C7006F0B0FE214610
:1021B000BDE81040034800F043BA00BFDC1900201E
:1021C000E40200208C00002070B50446E3610B4B54
:1021D000049D1B786561A26143B1094D094B2E68CE
:1021E000201D2B6006F01DFE2E6000E0A160214640
:1021F000BDE87040044806F0ABBE00BFDC1900200B
:10220000F00200208C000020E402002013B5034CF3
:1022100024680094FFF7D8FF02B010BDF002002040
:1022200070B5094B05461B783BB1084C084B266836
:102230000430236006F0FEFD26602946BDE87040AC
:10224000044806F085BE00BFDC190020F002002023
:102250008C000020E402002070B5094B05461B7875
:102260003BB1084C084B26680430236006F0EBFDB8
:1022700026602946BDE87040044806F069BE00BFEC
:10228000DC190020F00200208C000020E402002075
:1022900010B5084B04461B781BB1043000F0B8F8A9
:1022A00001E0C36003612146BDE81040024806F02A
:1022B0003BBE00BFDC190020E402002010B504463C
:1022C000FEF718FB94E80C001344C01A024B984226
:1022D0008CBF0020012010BDFEFFFF7F10B50E4C0B
:1022E000236813B90D4A136010BDFEF7F9FA21688F
:1022F00091E80C001A44131A8A6842B192E812005D
:102300002144091A8B4228BF0B469268F5E718440E
:10231000024B186010BD00BFE8020020EC02002054
:10232000014800F0A5B900BF9C000020F8B5038863
:1023300005462BB1592B09D0002303800320F8BD9B
:102340001E4A136059232B800120F8BD872920D015
:102350008229F7D1194F00263C68002CF2D0204684
:1023600006F09CFD90B1E0688821224600F040F91B
:1023700050B9E060A3680EB1B36000E03B60002399
:10238000A360FFF7ABFFE5E7FFF7CAFF2646A468A7
:10239000E3E70A490B680BB90B60D3E7D8689042B2
:1023A00001D19B68F7E70B6099680029CAD0C8681B
:1023B00090420ABF89680B469960F5E7E802002061
:1023C00010B50446FFF7ACFFE3680B4A4BB1136846
:1023D0003BB1A34203D1094A1268DA6007E09B6867
:1023E000F6E7064B1B68E36013681460A360BDE862
:1023F0001040FFF773BF00BFE8020020F00200208A
:10240000024B1868003018BF01207047E802002016
:1024100010B50B4A04461368984206D183681360CE
:1024200008E09A68A24203D01346002BF9D103E0DA
:10243000A2689A60FFF752FF0023A360E36010BD1B
:10244000E802002038B5836804460D469BB10A486F
:1024500004600220A07304F10C00984702380128A0
:1024600001D9832D05D120462146BDE8384000F032
:1024700005B80123A37338BDF00200202DE9F8430D
:102480001C4A0446156889462B4690461A4E376802
:10249000A34204D00BB11B68FAE7BDE8F88334B35C
:1024A000A37BABB10023A37345B1AC4204D0284653
:1024B0008721224606F0D8FC2D68F5E7A3683BB1DA
:1024C0004C4505D0346004F10C0083212A4698471E
:1024D000D8F800309C4203D12268064B05E0134631
:1024E00023B11A68A242FAD122681A603760BDE8A7
:1024F000F88300BFF4020020F002002010B5094B61
:1025000000221A70084B1C685CB1E37B3BB10123CD
:102510000022A373E27320468221FFF793FF246811
:10252000F2E710BDDF190020F4020020024B1878FA
:10253000421C1A70704700BFE0190020064B8A2227
:102540001A70064A00231370054A1370054A136077
:10255000054A1360704700BFE0190020DD19002014
:10256000DE190020F4020020F00200202DE9F041E5
:102570001A4D2B780BB1FFF7C1FF194C22783AB3F3
:10258000184E0C213378184F5943781817F80180EA
:1025900001334768806803F01F03013A33702270EB
:1025A00068B9124B1E689EB12B780BB1FFF7A6FFDE
:1025B000304641463A4606F057FC3668F3E7B8F134
:1025C000810F04BF0123837341463A4606F04CFC59
:1025D0002B7820781844BDE8F08100BFDF19002077
:1025E000DE190020DD190020F8020020F40200208E
:1025F000F0B50B4E3378202B0FD00A4C0C252478E5
:10260000094F1C4404F01F046C4301333D19A860BA
:1026100039556A6033700020F0BD0120F0BD00BF65
:10262000DE190020DD190020F802002038B5034C27
:10263000256806F019FC256038BD00BFF0020020B7
:1026400010B50A4609490C68234683420DD00BB1E8
:102650001B68FAE748B10460086001218173838137
:102660008121BDE81040FFF7E1BF10BDF40200205A
:1026700038B1837B013B012B9FBF024A0123C37307
:1026800013707047DF19002010B5084C206858B14E
:1026900000232360816843689847236823B1BDE81D
:1026A00010401868FEF754B910BD00BF7804002030
:1026B00038B505880446672D09D0792D2ED0002D18
:1026C00032D1FFF733FF1B4B18701B4B1D601B48AB
:1026D00006F00DFC431C01D167231DE00A28164BB0
:1026E00007D01A687E2AF2DC511C1960144B9854EA
:1026F000EDE7196800254A1C1A60114A0D4B555424
:1027000028461978FFF774FF0E4B852118682A4672
:10271000FFF76EFF20B97923238009E0852907D1CF
:10272000054B00221A60D2E700230380032038BD46
:10273000012038BDF02C0020840400207C040020FF
:10274000621A0020F00200200D2810B5014615D0B5
:102750000B4C23782BB90B4806F0B5FB48B9012385
:1027600006E00A2805D1074806F0ADFB08B10023B2
:1027700023700548FFF77CFF012010BD002010BD2D
:10278000E11900207C040020AC00002008B50548B9
:102790000549802206F090FBBDE80840034800216F
:1027A000FFF74EBF7C040020E2190020AC0000209F
:1027B000054A136843F004031360044B1B689069D7
:1027C00043EA002080B2704700700D4014700D4045
:1027D000174A136823F00C031360164B01221A608A
:1027E0001A68012AFCD1144B08221A60E322C3F8AC
:1027F000142203F505731946104B1B68DB07FBD544
:10280000102000230E4A0138126802F0010243EA48
:1028100002034FEA43039BB2F4D1002BF0D0094AE4
:10282000180A03F0FE0310601360EF230B6070477B
:1028300000700D40A8200D402486084064860840A2
:102840009C86084014700D402DE9FF411F4C204D1F
:1028500004F108030FCB8DE80F0029786F4694F838
:102860000780A1B13A23A3711A4B1A88521A92B267
:102870001A80A2F1280318122C312071214404F18E
:102880002C002C3A637106F02BF900232B701248B0
:1028900006F040FB064690B1D6F804C0BCF1000F2C
:1028A00009D00C4B2A781B8838322C3B38464146DD
:1028B00022449BB2E047304606F069FBEAE7054B4D
:1028C0002870188004B0BDE8F08100BFDC22002031
:1028D0000C1B0020C822002088040020F8B52A4BD9
:1028E0002A4C1B7904F11806E371237E04F10805D4
:1028F000FF2B08D195E80F0086E80F0028463146E7
:1029000000F0BEFA1BE02F46B646214A3B4603CBF9
:102910007345106051601F4602F10802F6D196E837
:102920000F0085E80F001A4B1A4D03F110062A46D6
:1029300018685968083303C2B3421546F7D1164DDB
:10294000297899B13A23A371144B1A88521A92B27A
:102950001A80A2F1280318122C31207163711048DB
:1029600021442C3A06F0BCF800232B702B788122EE
:102970002833E518E25400236B706B8006F0D0FB1F
:10298000C0436880F8BD00BF5C210020DC2200202D
:1029900050130020F42200200C1B0020C82200202D
:1029A0000823002038B504460B480D4606F0B2FA5D
:1029B00078B10379A34209D14379AB4204D183684A
:1029C0003BB19847002038BDFF2BF8D006F0DFFA66
:1029D000EEE7012038BD00BF8C040020014601480D
:1029E00006F0B6BA8C0400202DE9F74F484D814619
:1029F0002B7888469246474C43B12833E35C3A2B08
:102A00000BD1454A002313802B707EE0A3793A2B2B
:102A100003D194F92830002BF3DA03F0F9FD3F4E8F
:102A20003F4AB446934606F1100E334603CB734536
:102A3000106051601E4602F10802F6D1364E2F7822
:102A4000338804EB470030339BB2B3F5A06F88BFE7
:102A50004FF4A063338032882E4BD21B1946303A94
:102A60003030CDF804C0009306F03AF89DE8081025
:102A7000602222700022627062803A2217B183F8CD
:102A8000282000E09A71274A224B1279E2712289AC
:102A900072B95A8962B99A8952B9DA8942B91A8ADD
:102AA00032B95A8A22B99A8A12B9DB8A002BA8D085
:102AB0001D4B0FCB8CE80F009BF80030FF2B05D18E
:102AC000B9F1040F9DD1B8F1020F9AD114491648FB
:102AD00000F0D6F92F78504607F12803E21804F8E1
:102AE000039082F8018006F024FB33882C37283BC2
:102AF000E0511A1263712B78227128331C44002391
:102B0000638006F00DFBC043608003B0BDE8F08F2A
:102B10000C1B0020DC220020C8220020F422002010
:102B2000501300205C210020E42200202DE9F04118
:102B30001E460F461B4905460C4660230B700023BA
:102B40004B704B803A238B71174B90461B7900F1E9
:102B5000100ECB71331D1A120A714B7101F118025C
:102B6000134628686968083503C375451A46F7D1C6
:102B70000E482C3600F1100100F082F90C4B1B7846
:102B80002833E518E75400236B8085F8018006F0B0
:102B9000C7FAC043074B68801E80BDE8F04102F0D1
:102BA00045BD00BFDC2200205C210020E422002083
:102BB0000C1B0020C822002008B50448FFF70EFFB8
:102BC000BDE808400248FFF709BF00BFBC00002075
:102BD000C80000202DE9F3410446154D00910E4632
:102BE00090461F460195234612480321202206F0F5
:102BF00027FA01282B4616D12A6804F1100110701B
:102C000020462A68023250F8044B884242F8044BAE
:102C1000F9D11868089B86744361099B80F813807A
:102C20000777836100E0002002B0BDE8F08100BFBB
:102C3000940400205822002070B506460B4D0C4B22
:102C40002B602C680B4B9C420BD2237833B1A27CB7
:102C5000A01C3146D20805F09BFE20B120342C6028
:102C6000EFE7002070BD012070BD00BF940400207C
:102C700058220020B822002013B5084C80220346B9
:102C80000092019406480321202206F0D9F908B9E0
:102C9000206800E0002002B010BD00BF98040020B2
:102CA0007421002010B50C4A0C4B136013680C49BA
:102CB0008B420DD2197849B1411C02D0997C8142D6
:102CC00004D148F2FE015C888C4202D02033ECE74C
:102CD0000023184610BD00BF980400207421002076
:102CE000D421002037B504460F4D80230093019571
:102CF00023460E480521122206F0A2F901282B4690
:102D00000ED12A6804F11001107020462A680232A0
:102D100050F8044B884242F8044BF9D1186800E09F
:102D2000002003B030BD00BF90040020F821002037
:102D3000F7B50546204C802300930E4617460194B4
:102D40001E48032120222B4606F07AF9012830D1B3
:102D50002A46236805F1100118702368023352F8DF
:102D6000040B8A4243F8040BF9D12068C77416B9E2
:102D70000123037505E0002303753146183006F082
:102D800049F823680E480121997402234370FF22F9
:102D90000023027043808380C38003818372C172E9
:102DA00002736B7B4373EB89C381FFF79BFF206842
:102DB00000E0002003B0F0BD980400207421002042
:102DC0006013002013B5084C802203460092019442
:102DD00006480521122206F033F908B9206800E000
:102DE000002002B010BD00BF90040020F821002098
:102DF00038B50546C8B10D48022200244270FF23B1
:102E00000122C27244808480C4800481847203736E
:102E10000370EB7B43732B8AC381FFF7D3FF044A14
:102E2000106008B106F030F92C7038BD6013002036
:102E30009004002010B50E4B0E4C236020680E4B02
:102E400098420ED203784BB1037D3BB91830FFF79F
:102E500035FA18B1074B1868FFF7CAFF236820330B
:102E6000EBE700F065FABDE81040044805F0E2BF6A
:102E70007421002098040020D4210020B8220020D2
:102E80002DE9F84348F2FE030A8805469A4288462F
:102E900021D00B78FF2B1ED01B4B0024A1461F46D0
:102EA0001A4A1A603E681A4A964218D233787BB1A1
:102EB000B37C012B0CD148F2FE0372889A4207D0F2
:102EC0004046B11C06F0EDF8484524BF3446814623
:102ED00020363E60E6E70120FFF7E4FE04464CB9E9
:102EE0002C806C80AC80EC802C816C81AC81EC817E
:102EF000BDE8F883A31C123453F8042BA34245F811
:102F0000042BF9D1BDE8F883980400207421002037
:102F1000D421002010B5FFF74BFC0446FFF748FC16
:102F2000054B24029A68A4B22044B0FBF2F302FBE2
:102F3000130000EB520010BD5C21002073B52F4C34
:102F400001F03CFA00F08EF8002160222C4805F0D8
:102F50002BFE00212046F82205F026FE294B2022D8
:102F60001A70294B18221A704FF4A0632360274B64
:102F700040262671A360FFF7CDFF42F21073236154
:102F800048F2FE03314640F2FF260025E060257539
:102F90001F4C2A46238065802B46A580E58020466D
:102FA00000950195FFF716FE20461A4906F070F8C5
:102FB000294601222046FFF7BBFE4FF480732046CE
:102FC000E38126806580A580E58025816581A581D6
:102FD000FFF788FE4FF40073204626806580A580A9
:102FE000E58025816581A581E381FFF77BFE0A48A5
:102FF0000C2102B0BDE8704005F013BF5C21002039
:10300000582200205522002054220020C027090009
:1030100060130020D4220020B82200202DE9F041C6
:1030200005460D480F46904605F074FF044688B1EA
:10303000012D04D8094805F0A3FF034601E0084B21
:103040001B682846666839464246B047204605F068
:103050009EFFEBE7BDE8F081F8080020E0040020C7
:10306000DC04002008B50B4805F094FF0A4805F081
:103070004EFF0A4B0A49186804F036FA094805F071
:1030800089FF094805F043FFBDE80840074805F0FF
:103090003EBF00BFF400002034050020F0000020F7
:1030A000E5902000D4000020E0040020F808002073
:1030B00008B5034640B1054A5968106806F0C4FED9
:1030C000BDE8084006F03FB808BD00BFF000002092
:1030D000014805F01FBF00BF3405002008B506F009
:1030E00034F8014638B1044B186806F094FE0030FD
:1030F00018BF012008BD08BDF00000202DE9F041F7
:103100008046FFF7E5FF0026044637469CB194F859
:103110002450B5420AD3404604F10801EA0805F0FC
:1031200037FC18B9802D08D02E462746204605F0DA
:10313000D5FF0446EAE73C4667B1084805F0EAFED9
:10314000844207D00548214605F0EEFE034821469B
:1031500005F00DFF2046BDE8F08100BF34050020DA
:1031600038B5044600283ED04368002B3BD01E48AB
:10317000214605F0D9FE6368586805F0CBFE054688
:1031800030B14368A34207D0284605F000FFF6E7B8
:1031900004F1080002F090F963682946586805F0C8
:1031A000C3FE6368586805F0B5FE28B963680F4A26
:1031B0005968106804F050FA21460D4805F00EFFDA
:1031C00029460C4805F00AFF0B4A20461368013BCC
:1031D0001360FFF76DFF04F108010246BDE83840B7
:1031E0000320FFF71BBF38BD34050020F00000208E
:1031F000F400002000010020DC04002010B504468B
:1032000080B1406870B105F085FE20B14068FFF7DD
:10321000A7FF6068F7E7044B2146BDE81040186837
:1032200004F01ABA10BD00BFF000002038B5054602
:103230000D4805F06FFE0446A0B1AC420ED1214608
:10324000094805F071FE2146084805F0C7FE211D1A
:1032500001200A46BDE83840FFF7E0BE204605F0F1
:1032600096FEE8E738BD00BFE0040020D40000204F
:1032700038B50546084805F04DFE044648B1201D06
:103280002946102205F084FB18B1204605F07FFE88
:10329000F3E7204638BD00BFE0040020F8B505463E
:1032A0000F46FFF7E5FF044640B9134805F082FEDC
:1032B0000446F0B11148214605F059FE2B46261D63
:1032C00005F1100E324618685968083303C2734579
:1032D0001646F7D137B104F11400394605F09AFDCE
:1032E000002300E001232377002029462A46FFF728
:1032F00095FE2046F8BD00BFD4000020E004002069
:1033000038B50A4805F006FE044600255CB1251DC7
:10331000284601F087F808B1437C23B9204605F020
:1033200036FE0446F2E7284638BD00BFE004002020
:1033300010B50A4805F0EEFD044670B1237F43B98D
:1033400004F11400FEF7BAFF18B12046FFF76EFF34
:10335000EFE7204605F01BFEEEE710BDE00400207D
:1033600037B5124B124D1C782B796A79C4EB0323C5
:1033700013449BB2ADF80630BDF8063005F10801E4
:103380001844202280B205F0AFFEBDF8062004F1FB
:103390002801294492B205F0A7FE10B140BA80B2CC
:1033A00001E04FF6FF7003B030BD00BF0C1B0020E2
:1033B000DC2200202DE9F041264F274E3D7827489A
:1033C0002835AB195C780223E40007349C423DDBCE
:1033D000E9187218715CDFF88080012931D002D3BE
:1033E000632902D011E001332EE0037018461B4C14
:1033F00002F0CCFFD0B13B78227828331344434409
:103400005B7813440233237021E001F0C00180296E
:1034100005D0C02905D0402913D1037006E0037000
:1034200007E098F818200370FF2A02D10120BDE8B8
:10343000F08104200221EA18FFF7D6FA0220BDE845
:10344000F081527802321344DBB2BFE703700020F0
:10345000BDE8F0810C1B0020DC220020121B0020A4
:10346000F0B5C578124A0D44EDB2D57083780F0AD5
:103470003B44DBB293704478BB42547006781670BC
:1034800005D2601CC0B2507008B901361670C9B2BE
:103490008D420CDA0133DBB2054993703BB94B78AE
:1034A0000133DBB24B7013B90B7801330B70F0BDF5
:1034B000D022002010B5084C014620681430FFF7D8
:1034C000CFFF064A2368117819755178597591789C
:1034D000D2789975DA7510BD00280020D02200201E
:1034E00008B5FFF72BFDFFF767FB05F037FE00235C
:1034F0000E49002221F813200133082BF8D10C4982
:10350000002311443032B2F5F07F81F82530F6D136
:10351000084A4FF480611180074A00211A44203381
:10352000B3F5A07F1182F7D108BD00BFEC290020C0
:103530000428002070130020002A00202DE9F0410B
:10354000124F3D7805B3DFF84C8005F12703B8F83A
:103550000040A34203DB0023A8F8003013E00C4E28
:10356000A4F1280205F12801641BA4B206F1280089
:103570003144521B05F0B4FAA8F80040283C23124D
:103580003371747100233B70BDE8F0810C1B002087
:10359000DC220020C8220020F8B503461D4804465E
:1035A0000288013292B2B2F5FA4F28BF4FF480522E
:1035B00050BA80B20026184D77193F8A8742F0D062
:1035C0002036B6F5A07FF6D1228000225601AC1934
:1035D000278A47B92082618253B9204619461022B2
:1035E00005F0E2FA0FE001320A2AEFD10020F8BD1F
:1035F000274603F1100E3A4618685968083303C28B
:1036000073451746F7D1054B35441B7920462B757A
:10361000F8BD00BF70130020002A00205C210020AC
:103620000023064A32F81310814203D1002122F808
:10363000131070470133082BF3D17047EC29002099
:103640002DE9F74FA24E04283468A24F00F076828D
:10365000A149A24DA24A03280D6015608A4615D1E2
:1036600094F8253003F00F03032B08D1A38B002B14
:1036700040F07A869B4B08221A7000F06BBD022B3B
:1036800040F07286002305F8073CB9E302287AD19E
:10369000954A00231370954A3B801380944AD3784F
:1036A0000133DBB2D37063B993780133DBB293702B
:1036B0003BB953780133DBB2537013B9137801333C
:1036C000137094F8253003F0FD02052A0DD194F80B
:1036D00026300133DBB2782B84F8263040F0448664
:1036E000002384F8253000F03FBE002B00F03C861C
:1036F000A28B7C48002A3DD094F82620511E84F8E5
:103700002610002A40F0308694F82720082A04D09A
:10371000591E01290AD8052A08D1002384F825302A
:103720008023037002F0BAF800F022BD042A9CBF87
:103730000321914003F00F0394BFC9B2302101323D
:10374000013B84F8261084F82720072B00F20C8612
:10375000DFE813F0520308000A00C9040A06C9048E
:103760000A06C904002248E30423037002F096F815
:1037700000F02ABD03F00F03032B40F0F58508236A
:10378000037000F0E7BC052811D15A4B1B681B8A57
:10379000002B00F0E9850C3D1560544A002313808E
:1037A00033603B804F4B08220D601A70C4E115F85E
:1037B0003C3C3C3D03F0F003602B40F0D5852B7979
:1037C0006A791B0239889818884200F3CD8528321F
:1037D00013443B802B7AFF2B00F0C685464EAB1D71
:1037E0003360464C404B00221A702270AA799846EA
:1037F000BAB901232370FFF7DDFD012800F0B4857D
:1038000003D3022800F0AC850BE098F8003003F1F8
:1038100028022A4432605278083303EBC20388F846
:1038200000303748FFF728FA002840F0B2803448CB
:10383000FFF7C8FA002840F0AC802A7E304BFF2A00
:10384000A3F1180360D048F2FE00198B81425BD0CF
:103850001989814258D079B9598969B9998959B971
:10386000D98949B91B8A3BB9698A264B21B9998AFA
:1038700011B9DB8A002B47D0298B224B79B9598BA0
:1038800069B9998B59B9D98B49B9198C39B9598CFE
:1038900029B9998C19B9DB8CB3F5807F34D03B887A
:1038A000B3F5A06F04D9022000214FF4A06205E017
:1038B000EB79012B06D800210A460320FFF794F884
:1038C00000F04EBD0F4A013BD37100F049BD00BF6F
:1038D00000280020C8220020FC27002018230020F8
:1038E000CC220020F02700200C1B0020FC29002007
:1038F0000E1B0020F8270020F42700200D1B0020BD
:10390000F4220020DC22002048F2FE03298999429B
:1039100040F02A85298BA44B81B9598B71B9998BB9
:1039200061B9D98B51B9198C41B9598C31B9998C7C
:1039300021B9DB8CB3F5807F00F01685FF2A00F0FB
:1039400013859A48FFF778F90246002840F00C8565
:1039500001200221B2E725D9B9F13A0F7FD02CD945
:10396000B9F13B0F00F00085B9F13C0F73D123781A
:103970008F4998073BD558066DD443F040030B7030
:10398000FFF718FD012800F0EF8433D3022800F080
:10399000E7843268DFF848B292F80090B9F12B0F53
:1039A000D9D134E0B9F1060F00F01C81B9F1110F43
:1039B00076D0B9F1000F4ED104E0B9F12C0F00F030
:1039C000D38448E02378D90745D4794A43F00103EA
:1039D0001370FFF7EFFC012800F0C684D6D298F8E8
:1039E000003003F128022A44CBF8002008E043F01D
:1039F0000203C4E798F8003003F128022A44326039
:103A00005278083303EBC20388F80030C1E723780B
:103A1000590720D4664A43F00403137098F8003025
:103A2000DFF8909103F128022A44D17851B102F0D5
:103A300083FD0146002840F0938499F8002004207B
:103A40002A323BE7CBF800205278083303EBC2035D
:103A500089F800309DE704200121521B2EE705F074
:103A60005FFB4FF6FF73984240F07E8498F8003079
:103A70002833E85C01F0B4FD98F800302833EA18E8
:103A8000E85C5178FEF78EFF012801BF0023494A08
:103A90003B8013703B88002B00F0668400F060BC14
:103AA000FFF74CFDEB8D85F8069053B96E8D002E17
:103AB00000F05A84404B414D2B603B4BB3F82880BB
:103AC0000BE005F033FB4FF6FF73984240F04C8457
:103AD000ECE7238A33B920342C602C68384B9C42A5
:103AE000F7D315E09E42F6D1638A0BB19845F2D127
:103AF00023682BB963681BB9A3680BB9E3685BB192
:103B000030482146102204F043FF0028E3D103E0AF
:103B1000012004210022D1E63B882B49303B3B8029
:103B200000230B6029490220294A08702949CAF854
:103B300000200A60284A138001F0B0FE264B1A8844
:103B4000002A00F0118402F13003174C9BB23B8035
:103B5000283B19126371194B08321B6852BA217144
:103B6000197DA2850022E2851A8AE17122855A8A8E
:103B700011216285A17104F118050FCB85E80F00B2
:103B800004F108002946FFF77BF9144B04F13C02CD
:103B90001A6005F0CBFAC04380B208B1E085D9E3E2
:103BA0004FF6FF73E385D5E3DC220020F4220020EA
:103BB0000D1B00200C1B0020002A0020F8270020ED
:103BC000402B0020E422002000280020F0270020C5
:103BD0000C230020CC220020FC290020FC27002000
:103BE000F4270020FFF7AAFC85F8069005F09BFA61
:103BF0004FF6FF739842AE4C40F0B683B4F82AB04B
:103C0000BBF1000F00F0B083238D002B00F0AC83DC
:103C1000A84EB44696F82590B9F1000F11D0328A1B
:103C20005A450ED1728A9A420BD1A34831461022CE
:103C30008DE8081004F0ACFE9DE80810002800F0A4
:103C4000F5809E4A30369642E4D195F8352002F050
:103C50003F02022A08D10022994931F81210594531
:103C600050D00132082AF7D195F83520904B5207F1
:103C700000F17A83142283F835203C223A805022C6
:103C800083F8342093F8332093F8314093F82F00D1
:103C900083F82F2093F8322093F82E1093F8306099
:103CA00083F82E20013093F82D2083F82D4093F8CF
:103CB0002C40C0B283F8321083F8312083F82C6096
:103CC00083F8304083F8330060B90131C9B283F81A
:103CD000321039B90132D2B283F8312012B9621CE4
:103CE00083F830202B8D6A8D734C2A856B8504F107
:103CF000100594E80F0085E80F0020462946FFF7DD
:103D0000BFF812E3002421466A4A92F8250018B948
:103D1000302404FB01C413E0072809D13CB192F818
:103D2000266094F82600864288BF144600E01446B8
:103D300001310A2902F13002E7D1002C00F014838E
:103D4000604A638214605C4B032284F8262084F866
:103D50002420042284F823200FCB84E80F005A4B40
:103D600001201A78002622765A7884F82500627697
:103D70009A78DB78A276E37695F82C30A0832375C9
:103D800095F82D3084F82260637595F82E3084F80C
:103D90002760A37595F82F30A4F810B0E375FFF7EE
:103DA00089FB95F8343003F0F002502A24D91A091F
:103DB0003346053A9200E91891F83C00E0B1012839
:103DC00001D1013316E002280FD191F83D000428FB
:103DD0000BD191F83E2091F83F3043EA0223402B6B
:103DE00028BF4023E383238406E0E91891F83D10BF
:103DF00011B10B449342DEDB10222D4B83F83520AA
:103E00002B4B93F8352042F0020283F83520022232
:103E100083F83C20042283F83D20002283F83E20D2
:103E2000402283F83F203A80602242E2254B95F8F9
:103E300035101E60254B11F0040F344618709B4658
:103E400003D086F825002022E1E13B8809F00F0924
:103E5000A3F12802164BB9F1020F93F834304FEA60
:103E60001313A2EB83039BB23B8003D101F03F020B
:103E7000122A05E0B9F1010F03D101F03F02022A35
:103E800026D00BB98B0723D0AA8DB38A9A4204D1CE
:103E9000074BDA8DF38A9A421AD0880740F10282E2
:103EA000B9F1010FA8D0B9F1020F40F0FB81A7E7EB
:103EB000DC22002004280020E4220020E429002045
:103EC000EC290020002800200E1B0020F0270020F5
:103ED000C90654D5B18B002951D006F11800FFF75F
:103EE000BFFAB24B95F8301093F800E0B04A8E4517
:103EF00045D192F8311093F801C08C453FD192F82A
:103F00003200997881423AD192F83320DB7893429B
:103F100035D1F37696F8273086F818E086F819C080
:103F2000B1761BBB96F8243096F8261096F822003E
:103F3000591AA1EBD001C9B25FFA81FE1EF0800FC1
:103F400096F82330084418BF4942A3EB930318BFE7
:103F50005FFA81FE03EB0E02C0B2D3B286F82330C3
:103F600003EBD00386F8220086F82430914B01221F
:103F70001A7096F8243086F826300023B38396F81A
:103F80002510DFF8309201F00F03013B072B00F200
:103F9000EB81DFE813F00800250083004001620197
:103FA0007C018701320199F80020824BD2070FD59E
:103FB000032286F82520388840221A700022B28316
:103FC000002800F0C48042221A70FFF773FABEE0A6
:103FD00095F8353003F03F03022B40F0C5810BE725
:103FE00099F80030DB074ED595F8353003F03F03E4
:103FF000122B48D16E4B93F8343003F0F002502A64
:1040000024D91B09053B9B0000202A1892F83C107C
:10401000E1B1012901D1013016E002290FD192F856
:104020003D1004290BD192F83E1092F83F3043EA3C
:104030000123402B28BF4023F383338406E02A1852
:1040400092F83D2012B110449842DEDB032386F83B
:10405000253095F82C300120337595F82D30737587
:1040600095F82E30B37595F82F30F375FFF722FAD7
:104070004223514A8BF800300023B3833B8088F8F9
:104080000030138066E020238BF8003001F006FC3E
:104090004A4B00221B6883F82520E5E595F835306A
:1040A000D80725D5CA0623D4B38B002B40F05C81FA
:1040B0003888013080B2FFF7FDF99BF8003043F0FB
:1040C00010028BF800203A881AB13A4A43F01203E2
:1040D000137001F0E3FB0123B383082386F8253036
:1040E000002386F827301122314B83F83520DCE09D
:1040F00098060DD595F83A2095F83B3043EA02230F
:10410000DAF800201A44CAF800203A88D31A3B8013
:10411000388848B1CA0607D499F8003043F0020342
:1041200089F80030FFF7C6F995F8362095F8373052
:1041300003EB0223328C9BB2934202D8002B18BFB0
:104140001A4699F80030F2839B0700F00D811A4B54
:1041500000221A8001F0A2FB164B1A78164B02F0CF
:10416000200000F0FF0128B100221A8084F82520E9
:104170001422B9E702F0100000F0FF0540B11980E9
:104180000123A383042384F8253084F82710AAE7A9
:104190001988B1B1D60748BFA583A28B82B9E28B3B
:1041A000914288BF1A801B88A3830AE0D022002096
:1041B000DC220020F0270020FC290020002800201D
:1041C0001A80002384F827306D4B1B68CAF8003032
:1041D0006C4B1B882BB1A38B1BB13C333B8018224B
:1041E00007E0694B1B789D0740F1BE803C233B8074
:1041F0001022664B83F8352059E099F80030DC072F
:1042000040F1B280002386F825305F4B10221A70EF
:1042100001F044FBA8E0388808B1FFF74BF995F8A6
:10422000353013F001030FD099F80030D80745BF9F
:10423000072386F825300623002346BF86F826305C
:10424000B38386F8253016E099F80020D1071BD5F6
:10425000052286F82520B38386E0388808B1FFF769
:1042600029F995F83530DA070ED5072386F8253079
:10427000002386F826300120FFF71CF9102389F867
:10428000003001F00BFB0DE03B885BB96CE099F866
:104290000030DB0768D5072386F82530002386F831
:1042A000263061E0102385F835303C233B80374BC6
:1042B000502283F83420237D344D85F83030637DDF
:1042C00005F1180685F83130A37D85F83230E37D9D
:1042D00085F83330237E85F82C30637E85F82D30C9
:1042E000A37E85F82E30E37E85F82F30238A2B8538
:1042F000638A6B8594E80F0086E80F0005F10800DB
:104300003146FEF7BDFD94F8253003F0100303F0AD
:10431000FF022BB1002385F8373085F8363004E0F2
:10432000402385F8362085F83730184C0623A371D2
:10433000174B1B79E3713B88283B1A1263710023EA
:10434000227184F83B3084F83A30238704F0EBFE86
:10435000C04320870D4B60221A7000225A705A8089
:10436000094B00221A7007E00A4A002313700A4A18
:104370003B801370044A137003B0BDE8F08F00BF98
:10438000CC220020FC290020F0270020DC22002085
:104390005C2100200C1B00200D1B002010B50446E2
:1043A00040B102F0B7FA044B2146BDE8104018684E
:1043B00003F052B910BD00BF0C01002008B503F096
:1043C0002FFB034B03491868BDE8084003F08CB885
:1043D0000C0100209D43200070B51E460C4B044686
:1043E0009DF810201868059B03F0ACF8054668B1ED
:1043F00020462B4604F1100250F8041B904243F86B
:10440000041BF9D16E74284602F084FA284670BD68
:104410000C010020024B0146186805F015BD00BFD5
:104420000C01002070B50C4D0646286803F070F8AA
:10443000044666B9002070BD20463146102204F0C3
:10444000A7FA38B12146286805F0C6FC0446002CBE
:10445000F2D1EFE7204670BD0C010020024B01466F
:10446000186805F0D8BC00BF0C01002070B50546E7
:1044700010200C4603F02AFA0849064605F0F9FC1C
:1044800058B930462946224603F068FA3046294694
:104490002246BDE8704002F013BA70BDADA6200000
:1044A0000C4AB82303FB0022002330B553821A467E
:1044B000094CE1188D782DB11C5D844202BF0024A7
:1044C0008C70013240F24C5171338B42F0D1104666
:1044D00030BD00BF180900201E1B002008B506488B
:1044E00001F06CF8054B01221A70FD2100225A7070
:1044F0009970DA7008BD00BF45472000141B0020EA
:1045000010B513780446087A83F0020398421DD14F
:10451000487A5378984219D1887A9378984215D17D
:10452000C87AD378984211D1087B137998420DD17B
:10453000487B5379984209D1887B9379984205D179
:10454000C87BD379984201D103201BE00B890F4A25
:104550006BB94B89B3F57F4F09D18B89FE2B06D1FF
:104560001368C989022023F8021B13600AE013684C
:1045700051F8080F083343F8080C486843F8040C56
:1045800013600120A040C0B210BD00BF040900208C
:1045900010B50F4C0220A17903F07EF9A379112BFD
:1045A00001D0062B05D1238D618D9942A8BF1946F4
:1045B00008E03A2B05BF94F8281094F82930002120
:1045C00043EA01210120BDE8104003F065B900BFB6
:1045D000DC22002010B5084C01462378012B08D1BD
:1045E000A01C082204F0D4F900280CBF20460020AB
:1045F00010BD002010BD00BF141B002008B50146EF
:10460000102003F057F9044B04489B680021984799
:10461000BDE80840FCF7FCBA54A420002146200065
:1046200010B508460C461146FFF720FF044B1B68E7
:1046300013B19B6820469847024B1C6010BD00BF19
:104640001409002010090020F8B505460023114A7E
:10465000712404FB0324A278B2B9617003F046F818
:1046600026460D4F0D4A3B7806F8035BC01A1568C5
:10467000A0701D4403F03AF83A782946821A304671
:1046800004F0B8F9A078F8BD01330C2BDFD14FF05E
:10469000FF30F8BD1E1B00206A2000200809002002
:1046A0002DE9F8434FEA1219B9F10F0F80461D4664
:1046B00002F00F040BD00F2C05D1B9F1000F0AD175
:1046C0001024274619E0B9F1000F09D004E00F2C9F
:1046D0004FF0100900D1102440464A4604F08AF9F0
:1046E00009EB04020F2A274606DC08EB090000212B
:1046F000C2F1100204F058FABCB1114DC7F110001C
:104700002E6840443146224604F074F9022C08D148
:10471000B9F10A0F9FBFFF2388F80B30FE2388F8FA
:104720000C3034442C60BDE8F883B9F1000F05D09B
:1047300040462946BDE8F84304F0AABCBDE8F8832A
:10474000040900202DE9F04F8E4E8F4D002387B0D5
:1047500033702B70044603F045F802F0D9FF8B4A02
:104760008B4B126818608DE8600099460AB1FFF71C
:104770000FFF04A80CB9874900E0214605F074FB3F
:10478000854B864E1A8803933E2A40F20182D9F85F
:1047900000B0834D0BF102032B60009B06F1180063
:1047A00093F80080002308F102080BF80830FFF7A7
:1047B00011FF20B906F10800FFF70CFF20B10BF143
:1047C00003032B60802400E00446727831781309DB
:1047D00043EA0113DBB2980840EA8313DBB212F01C
:1047E0000F0FDEB26E4F01F00F010CD16B48408805
:1047F00048B911B912F0F00F1FD03B6803F8016BF4
:104800003B6070261AE079B912F0F00F0CD12968DC
:1048100023F03F031A43634B0A701B88033121F8CE
:10482000023C6826296009E05C4A2B681068186021
:1048300003F8046B2B60602600E07826574B9A79CA
:104840000293112A08BF46F0040673075EBF3B6857
:1048500003F8012B3B60029BDB79402B06D0FF2B3A
:1048600007D0012B08D146F0010609E046F0020608
:1048700006E046F0030603E03A6802F8013B3A60BE
:10488000029A464B128982B95A8972B99A8962B9D9
:10489000DA8952B91A8A42B95A8A32B99A8A22B93D
:1048A000DB8A13B944F0400013E03F48FFF792FE63
:1048B0003E4B186078B142781BF80830042043EA78
:1048C00002130BF808303849394AFFF719FE60F037
:1048D0003F00C4B227E0029B30491A8948F2FE0328
:1048E0009A420CD14B8B53B98B8B43B9CB8B33B9D9
:1048F000042008312E4AFFF703FE2043E9E73A6817
:10490000DFF8A4C096460CF1100A634603CB53456A
:10491000CEF80000CEF804109C460EF1080EF4D13B
:104920001F4B10321A60DFF874A09AF81830FF2B72
:1049300040F08A809AF8192044F0080E022A5FFAA3
:104940008EFE37D1BAF81A30A3BBBAF81C308BBB35
:10495000BAF81E3073BBBAF820305BBBBAF822300D
:1049600043BBBAF824302BBB9AF8263013BB3B6804
:104970009AF8272044F00B0003F8012BC4B23B60E7
:104980009FE000BF131B00206A20002014090020B4
:1049900008090020ADA62000C8220020DC2200204B
:1049A00004090020DE220020E4220020FC08002070
:1049B000D42200209B4B588B194688BB988B78BB20
:1049C000D88BA8B9188C98B9588C88B993F824005A
:1049D00070B9296844F00A00C4B2084600F8012BF7
:1049E00033F8252F043121F8032C9B78837015E0D0
:1049F000C98B8C4BA1B9198C91B993F8221079B954
:104A0000296844F00900C4B2084600F8012B53F8A5
:104A1000232F063141F8052C1B790371296050E0E2
:104A2000814ADFF818C214680CF110082746634663
:104A300003CB4345386079609C4607F10807F6D1FF
:104A40001034146074463CE00AF11800FFF7C2FD10
:104A5000764B186050B143781BF8081044F00404FA
:104A60000B43E4B20BF8083000200EE048F2FE03DE
:104A7000BAF818209A4210D1BAF81A306BB9BAF8BD
:104A80001C3053B9BAF81E303BB90AF1180104AA18
:104A9000FFF736FD2043C4B213E0634ADFF89CC140
:104AA00017680CF11008BE46634603CB4345CEF8A9
:104AB0000000CEF804109C460EF1080EF4D1103719
:104AC0001760019A5749282313708B79112B53D102
:104AD0004FF2B0030A8D52BA92B222F00F0080B2A8
:104AE000984217D14B8D5BBA23F00F031B041B0CAC
:104AF00083420FD12868F32303704B8D02301A0ACA
:104B00000B8D1B0A02EB031303F5AA6300F8013CAB
:104B1000286028E0029B43495B8D5BBA03F47F4326
:104B2000B3F5704F09D12B68F1221A700A8DA3F8E2
:104B300001204A8D120ADA700CE002F47F42B2F5CD
:104B4000704F2B6808D1F2221A700A8D120A5A701F
:104B50004A8D5A80043305E0F0221A70886A0533C2
:104B600043F8040C2B60324B1A882B6823F8022B75
:104B7000019A2B6030231370009BD9F800201B781A
:104B8000D65413445C70284B1B689B1A009A1AE099
:104B9000D9F8002041231370009B06F128051C78EA
:104BA000631CDBB21344324603CAAA421860596040
:104BB000164603F10803F6D1009B29341C70019BB3
:104BC000019A1B782833102013700DEB000102F0BE
:104BD00071FE184BDFF868801B68984730EA2000A8
:104BE00028BF1520039BC0F17D051C88019BDFF8C1
:104BF00054A01E78009BA21B93F800B00E4FCBEB85
:104C000005039A4240F3CD80C0F17803019302F08E
:104C100095FB019B94FBF3F40134A04214DC0020CB
:104C2000D1E000BFDC22002004090020FC080020A5
:104C30000A23002028A420006A200020F42200205B
:104C4000C8220020131B0020D9F800B05F4B3C782D
:104C500000221A60594622460BF10400039303F028
:104C60003FFFB8F800205A496FEA82426FEA924249
:104C7000C2F307228BF80020B8F8002004348BF828
:104C800001200A88E4B2501C0880110ADFF850C1E4
:104C90008BF802102D1B9AF8001025F007054D4ED9
:104CA00061448BF803200BEB04002A46CDF808C0C2
:104CB0003C70356003F09EFE281980B202F00CFDB6
:104CC00002F042FB039B04461D460028A7D00DF1CD
:104CD000100B5846FFF792FC204602F06DFB204671
:104CE00002F054FB2B68012B99D0043B012B96D981
:104CF0009AF800A0336853441FFA83FA05233B70E7
:104D0000354B1A68B8F800306FEAC3436FEAD343F3
:104D1000C3F307231370B8F800305370019B23F0DE
:104D2000070737602D4B1B889A454BD2D9F80020D6
:104D30004FEADA0111713268CAEB03039342B8BF3C
:104D4000244AD9F80000B8BF1360009B376893F875
:104D50000080029B3A4603EB0A01404403F04AFEFE
:104D600008EB070080B202F0B7FC02F0EDFA07464C
:104D700000283FF454AF5846FFF740FC384602F095
:104D80001BFB384602F002FB124B1B689A442B684F
:104D90001FFA8AFA012B3FF442AF043B012BC1D822
:104DA0003DE7D9F800000E495844314403F022FE93
:104DB000B8F800005844801B80B202F08DFC04A8B3
:104DC000FFF71CFC012007B0BDE8F08F10090020A0
:104DD000261400200C09002008090020C822002009
:104DE000DC2200202DE9F047074688461646002AB7
:104DF00047D0434C0025A146238ABB4215D1638A84
:104E00009BB10F2002F062FD0146204605F031F80B
:104E100058B1ECB220463146FFF716FC002827DADD
:104E20000027DFF8E0A0B8460DE0B834002D5DD1D2
:104E30000125E1E7A8450BD10AF1B80AB8F1000F46
:104E400010D14FF001083AF8063C002BF4D0F1E7FE
:104E5000504604F023F80028EED04046FFF720FB30
:104E60000744E9E7002F41DD20463146FFF7ECFB20
:104E700000283BDDB82303FB0595AB8A1844A882C4
:104E80003AE0204DFF2435F8063C4FFA84F97BB315
:104E9000284604F003F810B13046FFF701FBB9F1E2
:104EA000FF3F03D135F8063C03B9F4B2012E05F1FA
:104EB000B80501D00126E6E765B26B1C16D0B82311
:104EC0005D43DFF83C900F2009EB0506A6F8128041
:104ED000378202F0FBFC0146304604F0C5FF05F1C5
:104EE00018004844402103F0C7FF05E0FF2403E019
:104EF000B9F1FF3FDAD1D8E760B2BDE8F08700BF73
:104F000018090020300900202DE9F04F0F2087B04C
:104F1000A54CDFF8CCA202F0D9FC002602F05AFD25
:104F20008AF80060267002F0F3FBA04DA0462860CE
:104F3000042002F0B9FC9E4B2A6800B21860577832
:104F4000137847EA032703F0F803C02B02D0E02BC5
:104F500019D03AE090782378D278C7F30A0704335F
:104F600042EA0020394632462370FFF73BFFB0F19A
:104F7000FF3F814600F080828E4CB82303FB004443
:104F80000126223424E01379D17890782278C7F36F
:104F90000A070532227041EA00201A46394600937A
:104FA000FFF720FFB0F1FF3F814600F065828149A5
:104FB000B82202FB0012958A4FF0010BBD4234BFAC
:104FC000002501253446009BDFE1B1464F467A4C6F
:104FD000296898F800504A5D02F0E003602B40F029
:104FE000B681A81C084429444D78744B5FFA85FCAF
:104FF0001CF0800F18601CBF0130186012F0100FF9
:1050000002F0080130D1D1B9196831F8010FA4F8C4
:1050100001008978E170196811F8040B19608308A0
:1050200003F00F0141F060012170617803F030035B
:1050300043EA801301F00F010B43637030E01868FE
:105040006021864621701EF8011B03304FEA910B48
:105050000BF0300B01F00F014BEA01016170BEF85B
:105060000010186061801BE001F0FF0E99B919680B
:105070000878C0F3830040F06000207011F801BB95
:10508000A4F802E04FEA9B0000F0300040EA8B10E9
:105090006070196004E060232370002363706380F4
:1050A00002F0040303F0FF0100912BB943490B68A0
:1050B00013F8010BA0710B6012F003020BBF3F4A03
:1050C0003F4B13689B5C09BF13F8011BE37113602E
:1050D000E1716B06C5F3011233D51CF0800F1DBFC3
:1050E000324998F80030096800211EBF5B18997892
:1050F000090922B904F1080B9AB9114614E0314BA1
:105100001878012805D1587888420CBF194600212B
:1051100000E000212C4B19600029EBD1B3460D466D
:1051200032E1294B19680231284B0F209A5C039118
:10513000CDF808C0019202F0C9FB03990346584616
:105140000BE0234B0F209A5CCDF808C0019202F0CF
:10515000BDFB2049034604F10800019AFFF7A0FABD
:1051600005F00800DDF808C005F0030200F0FF01BB
:1051700005F00403002835D0002B6BD1164B1B889B
:10518000ADF81430531E012B9FBF0C490B6813F868
:10519000010B0B60114B98BF8DF815009A5C04F160
:1051A000180005A9002353E06A2000200809002008
:1051B0000009002018090020DC220020040900203A
:1051C0005BA62000141B0020FC08002074A6200011
:1051D0005FA6200063A6200059A6200065A6200037
:1051E000131B002053B31CF0800F1DBFA44998F877
:1051F000003009680B4618BF5B18A24918BF9D789C
:10520000087818BF05F00F03012805D14D789D429D
:105210000CBF0D46002500E000259B4B1D60002DB6
:1052200000F0AE80994B10209A5C019202F04EFB88
:10523000A91C0346019A04F1180009E0944B1020C0
:105240009D5C02F043FB2A469249034604F1180094
:10525000FFF726FA9AF800008F4900F128038AF830
:105260000030009B002B53D00B681A7802F0F80234
:10527000F02A4DD11122A2711A7802F0040502F031
:10528000F302F03AEDB2032A7CD8DFE802F0020A1A
:105290001622B3F801200533228533F8022C6285EB
:1052A0002CE0B3F801202285DA78A2F5805292B280
:1052B000120242F0F002628509E05A78A2F58052AB
:1052C00092B2120242F0F00222855A8862850433BB
:1052D00014E05A7802331209A2F5756292B21202F2
:1052E00042F0F002228513F8012C02F00F02A2F521
:1052F000756292B2120242F0F00262850B6025B92B
:105300000B6833F8022BE2850B6030308AF800001E
:105310005B4A0B6812689B1A88F8003067B902F084
:10532000E5F95E4B1B78C01A9AF80030184428380B
:1053300003122371607104E0A7F128031A1222718D
:105340006371A379112B1DD1A388A3851AE0412A8B
:1053500040F092806A1CD2B28B18224603F12801D9
:1053600053F8040B8B4242F8040BF9D105F12903E1
:1053700088F800309AF8003028338AF8003001E0CD
:10538000B34601E0B34600252B46009302F0AEF988
:1053900098F8002082426FD802F0A8F93F4A4049AD
:1053A0001278009BC2EB0008C1F8008040F2145153
:1053B0009AF800A0DB009BB2534443448B425BD875
:1053C0003CB12F4B04EB0A0019681144424603F02C
:1053D00011FB002F39D056B132484FFA89F3B82467
:1053E00004FB030308EB0A0189B29982198495B37F
:1053F000B8224FFA89F402FB04F32A492A48CA1852
:10540000114697822231128C03F0F4FA274D05F2EF
:105410004C5615F8012C5AB115F8033CA34207D19C
:1054200015F8020C204B294603EBC00003F0E2FA0A
:105430007135B542EDD15FFA89F0FFF731F8BBF174
:10544000000F0BD01A4B1F800CE0BBF1000F05D0F2
:10545000002DF7D110E0BBF1000F0DD1144BD0445B
:10546000A3F80080134C236823B1FFF791F8236859
:105470005B68984700F0C8F807B0BDE8F08F00BF40
:1054800008090020141B0020FC08002074A620003E
:105490005FA6200063A62000040900206A200020E7
:1054A0000C09002018090020DC220020211B00200C
:1054B000C822002014090020F7B5054628B9224863
:1054C00003B0BDE8F040FCF78DBA0388ABB944885F
:1054D000ACB98388A3B9C4888CB9038983B94FF662
:1054E000FF72418991420AD1017B427B837BC07B61
:1054F00000901648FCF776FA24E0002400E01C46F1
:105500002646AB195B78AF5D03EB0727BFB24FB9F7
:10551000002C09DB01D0013411E00D48FCF762FAE0
:1055200001240CE0002C04DC2EB13A2003F000FC36
:1055300001E04FF0FF3407483946FCF753FA0236D2
:10554000102EDED103B0F0BD78A6200087A6200083
:105550009AA620009DA6200038B50A4C71B140F2F1
:10556000E445AA420ADC084D22802860074803F07F
:10557000B7FA0420FEF764F800F058F800232380FF
:1055800038BD00BFFC290020F82700200C23002094
:1055900008B5054803F060FC20B1BDE808400248AA
:1055A00003F051BC08BD00BFCC0A0020024B1B68B1
:1055B00003B1184718467047DC0A0020014B1860F9
:1055C000704700BFDC0A002010B51446FDF7E4FF69
:1055D00018B1024BC4611B68836110BDF00200204A
:1055E00007B5074B8DF80700186828B1054B0DF17A
:1055F00007021978FDF71AF803B05DF804FB00BF45
:10560000E4290020F22C002008B5002204480221E1
:10561000FDF70CF8034A00231380034A137008BDFA
:1056200020010020C82200200C1B002030B52C4D8A
:1056300085B02B88002B50D0B3F5A06F1ED8294C15
:10564000238B6BB9638B5BB9A38B4BB9E38B3BB9F2
:10565000238C2BB9638C1BB9A38C0BB9E38C6BB176
:1056600001F014F850B1237EFF2B04D0684600F0FF
:1056700007FFA8B907E00020FFF798FF1A4A0023A8
:105680002B80137029E01948FDF7D6FA50B117485E
:10569000FEF7C8FE08B928801FE0FEF7BBFEEBE767
:1056A0006846F5E71148FDF729FD044638B9FDF7CE
:1056B00027FE0028ECD10C4B288018700DE0FDF778
:1056C000F7FC0028E4D1E36923B11B6A93F8940046
:1056D00003F047FF2046FDF743FD05B030BD00BF96
:1056E000C8220020DC2200200C1B0020F422002015
:1056F000F8B50388064614463BB140F24B3293425C
:1057000022D0002303800320F8BD554A002122F84F
:1057100033100133082BF8D1524B1B681364FCF78C
:1057200005FF514B1870FCF701FF504B40211870DA
:105730004F4803F076FBFDF7D3FE01F01DF940F270
:105740004B3333800120F8BD022917D1494B1A8809
:105750001C46002AF3D0484B9A79062A05D193F8C3
:1057600035309B0701D5FFF713FF0120FDF768FFD8
:105770002388002BE3D0FFF759FFE0E716D859B98B
:10578000002CDCD03D4B03201C60FDF759FFFFF7D8
:105790004DFFFFF7FDFED2E70129D0D1002CCED07E
:1057A000374B05201C60FDF74BFFE4E787292AD023
:1057B0008829C4D12E4B9C4203D0324B9C42BED18F
:1057C00019E0204603F048FB0028F6D000252E4FB4
:1057D0002F4497F825304BB1254803F034FB274B75
:1057E00002201F60FDF72CFFFFF720FF3035B5F5D5
:1057F000C07FECD1E1E7204603F02EFB00289ED0CD
:10580000FDF718FBB7E7214D05F1400755F8043CBB
:10581000A34208D135F8080CFDF702FF002325F854
:10582000083C45F8043C0835BD42EFD1164B9A6A56
:105830003033A24202BF002243F8082C03F80B2C9D
:10584000134A9342F3D1134B9A692033A24204BF07
:10585000002223F8102C104A9342F5D16FE700BFC5
:10586000880A0020F0020020F12C0020F22C0020F9
:10587000CC0A0020C8220020DC22002000280020C2
:10588000F8270020B822002004280020900A0020D9
:1058900084290020002A0020402B002010B5144B42
:1058A0001B6813B103F1280402E0124A146818348B
:1058B000114A1278520611D5198A00230F4A985AB4
:1058C000884206D11A4452681AB1002322606360EC
:1058D00002E00833402BF1D1FFF75AFE206830B1C7
:1058E000074B62681978BDE81040FCF79FBE10BDF9
:1058F00000280020F8270020F0270020880A002038
:10590000F12C00202DE9F74F384A13683BB90121EB
:10591000116037484FF4F051364AFCF777FCDFF856
:10592000E4A0354E354FDFF8E080DFF8E09000244A
:10593000DAF8000034803C60C8F80040C9F8004044
:1059400001F0E6FD0546002D48D0DAF800002946B2
:1059500004F07AFA83462846FDF7C0FB30B1D9F847
:1059600000300133C9F80030012300E003465846F7
:10597000019300F0F9F8019B10B3D8F80020013230
:10598000C8F80020026812B1916981421ED0EBB9BB
:105990004FF6FF71B6F800E0174B8E4516D08188A0
:1059A000A1B1019392B1126A82B1926812699047D3
:1059B000019B1A88824209D21880C7F800B005E01E
:1059C00023B94FF6FF73C7F800B033802946DAF8E1
:1059D000000004F001FA01340546B4E7084BC4F1B5
:1059E0000A041C6003B0BDE8F08F00BF000B00206C
:1059F000E00A0020115A200028140020080B002083
:105A00000C0B00200C010020100B0020040B0020C8
:105A100008B5FFF777FFBDE808400148FCF71CBC5C
:105A2000E00A002008B5FFF76DFF044B1B68072B49
:105A3000DABF034B1868002008BD00BF040B00202C
:105A4000080B002010B50C46FFF75CFF207E00F02D
:105A500055F988B1C36863B1084BB0F8A410628AE5
:105A60001B880A44A3EB51039A4204DA044B1868DA
:105A700010BD184610BD002010BD00BF2814002026
:105A8000080B002010B50C46FFF73CFF44B1E3685B
:105A9000B4F8A4209B8B934214BF08230A2300E090
:105AA0000823044A12689A42BABF034B18680020C0
:105AB00010BD00BF040B0020080B0020022806D0F8
:105AC000032807D0012808D10548FFF7BBBF0448C9
:105AD000FFF7D8BF0248FFF7A5BF0020704700BFFF
